:100000000C9472000C9493000C9493000C94930045
:100010000C9493000C9493000C9493000C94930014
:100020000C9493000C9493000C9493000C94930004
:100030000C9493000C9493000C9493000C949300F4
:100040000C9493000C9493000C9493000C949300E4
:100050000C9493000C9493000C9493000C949300D4
:100060000C9493000C9435020C9493000C94930020
:100070000C9493000C9493000C9493000C949300B4
:100080000C9493000C9493000C9493000C949300A4
:100090000C9493000C9493000C9493000C94930094
:1000A0000C9493000C9493000C9493000C94930084
:1000B0000C9493000C9493000C9493000C94930074
:1000C0000C9493000C9493000C9493000C94930064
:1000D0000C9493000C9493000C9493000C94930054
:1000E0000C94930011241FBECFEFD1E2DEBFCDBF31
:1000F00000E00CBF13E0A0E0B2E0ECEBF1E100E0C7
:100100000BBF02C007900D92A830B107D9F713E0DA
:10011000A8E0B3E001C01D92A930B107E1F70E9449
:100120002E030C94DC080C940000259A2D9A089557
:10013000269A2E9A0895279A2F9A0895E1E8F0E0DA
:1001400010828CEF8093850081E08093840093E09F
:10015000909389008FEF8093880090938B00809319
:100160008A0090938D0080938C00909387008093F9
:1001700086008BEA80938000109282008CE080835E
:1001800008951092890090E0A0E0B0E0BC01CD019C
:100190000E9437062BE734E14EEE5FE30E9407052D
:1001A00020E030E04CE052E40E94A9040E943103B8
:1001B0006093880008951092890090E0A0E0B0E07C
:1001C000BC01CD010E9437062BE734E14EEE5FE320
:1001D0000E94070520E030E04CE052E40E94DA047F
:1001E0000E9431036093880008951092890090E086
:1001F000A0E0B0E0BC01CD010E9437062BE734E15E
:100200004EEE5FE30E94070520E030E04CE052E450
:100210000E94A9040E9431036093880008951092FF
:10022000890090E0A0E0B0E0BC01CD010E9437065B
:100230002BE734E14EEE5FE30E94070520E030E05B
:100240004CE052E40E94DA040E943103609388007B
:10025000089510928B0090E0A0E0B0E0BC01CD01C9
:100260000E9437062BE734E14EEE5FE30E9407055C
:1002700020E030E04CE052E40E94A9040E943103E7
:1002800060938A00089510928B0090E0A0E0B0E0A7
:10029000BC01CD010E9437062BE734E14EEE5FE34F
:1002A0000E94070520E030E04CE052E40E94DA04AE
:1002B0000E94310360938A00089510928B0090E0B1
:1002C000A0E0B0E0BC01CD010E9437062BE734E18D
:1002D0004EEE5FE30E94070520E030E04CE052E480
:1002E0000E94A9040E94310360938A00089510922D
:1002F0008B0090E0A0E0B0E0BC01CD010E94370689
:100300002BE734E14EEE5FE30E94070520E030E08A
:100310004CE052E40E94DA040E94310360938A00A8
:10032000089510928D0090E0A0E0B0E0BC01CD01F6
:100330000E9437062BE734E14EEE5FE30E9407058B
:1003400020E030E04CE052E40E94DA040E943103E5
:1003500060938C00089510928D0090E0A0E0B0E0D2
:10036000BC01CD010E9437062BE734E14EEE5FE37E
:100370000E94070520E030E04CE052E40E94A9040E
:100380000E94310360938C00089583E0809389007C
:100390008FEF80938800089583E080938B008FEF28
:1003A00080938A00089583E080938D008FEF80937F
:1003B0008C0008953B9A4398089581B18F6081B96C
:1003C00082B1807F82B9EAE0F1E080818861808338
:1003D000EBE0F1E0808188618083089581B18F60D6
:1003E00081B982B1807F82B9EAE0F1E080818861E1
:1003F0008083EBE0F1E08081886180833B9A4398C1
:10040000259A2D9A269A2E9A279A2F9A0895F8942B
:100410000E94EE01E1ECF0E010821092C00086E054
:100420008093C2008FE58093C4001092C50088E9D4
:1004300080830E949E007894089586B1886088B970
:10044000089586B1877F88B90895E1ECF0E01082C5
:100450001092C00086E08093C2008FE58093C400B4
:100460001092C50088E9808308951F920F920FB6FD
:100470000F920BB60F921124FF920F931F932F939D
:100480003F934F935F936F937F938F939F93AF931C
:10049000BF93CF93DF93EF93FF938091C600809338
:1004A00008038093C600883311F486E00BC08233C2
:1004B00011F489E007C0843311F485E003C086336A
:1004C00019F48AE082B92BC0853381F412B893E025
:1004D000909389008FEF8093880090938B00809396
:1004E0008A0090938D0080938C0019C08133B9F4F9
:1004F00010E0C0E7D1E053E0F52E0FEF812F0E940E
:10050000C1008CE291E0FE013197F1F70197D9F734
:10051000F0928900009388001F5F123079F7809174
:1005200008038333B9F410E0C0E7D1E043E0F42ED0
:100530000FEF812F0E9429018CE291E0FE0131979B
:10054000F1F70197D9F7F0928B0000938A001F5FB3
:10055000123079F7809108038133B9F410E0C0E7D5
:10056000D1E033E0F32E0FEF812F0E94C1008CE227
:1005700091E0FE013197F1F70197D9F7F0928900E8
:10058000009388001F5F123079F78091080387334A
:10059000B9F410E0C0E7D1E023E0F22E0FEF812F95
:1005A0000E94DB008CE291E0FE013197F1F70197A8
:1005B000D9F7F0928900009388001F5F123079F715
:1005C000809108038933B9F410E0C0E7D1E093E0EB
:1005D000F92E0FEF812F0E9443018CE291E0FE0182
:1005E0003197F1F70197D9F7F0928B0000938A00C9
:1005F0001F5F123079F7809108038733B9F410E058
:10060000C0E7D1E083E0F82E0FEF812F0E94DB00DE
:100610008CE291E0FE013197F1F70197D9F7F09262
:100620008900009388001F5F123079F7FF91EF91E6
:10063000DF91CF91BF91AF919F918F917F916F91FA
:100640005F914F913F912F911F910F91FF900F90CC
:100650000BBE0F900FBE0F901F9018950E940702BF
:10066000FFCFEF92FF920F931F937B018C0120E04D
:1006700030E040E05FE40E94B30588238CF0C801BD
:10068000B70120E030E040E05FE40E94A9040E944E
:10069000E3059B01AC01205030404040504806C06B
:1006A000C801B7010E94E3059B01AC01B901CA0171
:1006B0001F910F91FF90EF900895A0E0B0E0E3E666
:1006C000F3E00C94A508DC012B01FA019C91923017
:1006D00008F439C1EB018881823008F433C19430C9
:1006E00069F4843009F02FC111969C91119789818A
:1006F000981709F428C1A0E0B2E025C1843009F4BC
:1007000021C18230A9F4923009F01DC19A01AD01D6
:1007100088E0EA010990AE01E90109929E01815049
:10072000C1F7E201898111969C918923818308C1D7
:10073000923009F407C112962D903C901397EB016B
:100740008A819B811496AD90BD90CD90DC901797D7
:10075000EC80FD800E811F819101281B390BB901AE
:1007600037FF04C066277727621B730B6032710561
:100770000CF061C0121613066CF537014801062E05
:1007800004C096948794779467940A94D2F721E0F2
:1007900030E040E050E004C0220F331F441F551FDB
:1007A0006A95D2F721503040404050402E213F21E1
:1007B00040235123211531054105510521F021E048
:1007C00030E040E050E079018A01E628F728082966
:1007D00019293CC0232BD1F1260E371E35014601C5
:1007E000062E04C096948794779467940A94D2F75F
:1007F00021E030E040E050E004C0220F331F441FEE
:10080000551F6A95D2F721503040404050402A2170
:100810003B214C215D21211531054105510521F078
:1008200021E030E040E050E059016A01A628B728F5
:10083000C828D9280BC0821593052CF01C01AA24C6
:10084000BB24650103C0EE24FF24870111969C910F
:10085000D20111968C91981709F445C0992339F06B
:10086000A80197012A193B094C095D0906C0A60198
:1008700095012E193F09400B510B57FD08C01182FD
:100880003382228224833583468357831DC081E0CF
:1008900081833382228288279927DC01821B930B74
:1008A000A40BB50B84839583A683B7830DC0220F59
:1008B000331F441F551F248335834683578382810A
:1008C0009381019793838283248135814681578167
:1008D000DA01C9010197A109B1098F5F9F4FAF4F9D
:1008E000BF4328F30BC0918333822282EA0CFB1CA6
:1008F0000C1D1D1DE482F5820683178383E080832F
:10090000248135814681578157FF1AC0C901AA2722
:1009100097FDA095BA2F81709070A070B070569519
:10092000479537952795822B932BA42BB52B848342
:100930009583A683B7838281938101969383828373
:10094000DF0101C0D201CD01CDB7DEB7E2E10C94E9
:10095000C108A0E2B0E0EFEAF4E00C94B1086983CA
:100960007A838B839C832D833E834F835887E9E072
:10097000EE2EF12CEC0EFD1ECE010196B7010E9469
:10098000D4078E010F5E1F4FCE010596B8010E945D
:10099000D4078A8991E089278A8BC701B801AE0103
:1009A000475E5F4F0E945D030E94FF06A096E6E04F
:1009B0000C94CD08A0E2B0E0E0EEF4E00C94B108B5
:1009C00069837A838B839C832D833E834F835887EF
:1009D000F9E0EF2EF12CEC0EFD1ECE010196B701D1
:1009E0000E94D4078E010F5E1F4FCE010596B801FD
:1009F0000E94D407C701B801AE01475E5F4F0E9455
:100A00005D030E94FF06A096E6E00C94CD08A8E1E5
:100A1000B0E0EDE0F5E00C94AD0869837A838B8358
:100A20009C832D833E834F835887B9E0EB2EF12CB6
:100A3000EC0EFD1ECE010196B7010E94D4078E0177
:100A40000F5E1F4FCE010596B8010E94D40729857D
:100A5000223008F47EC03989323010F4B8017CC0ED
:100A60008A859A8989278A87243011F0223031F4C7
:100A7000231709F06EC060E072E06EC0343039F4C4
:100A80001D861E861F86188A1C861B8604C032306F
:100A900021F484E08987B7015FC02B853C858B8971
:100AA0009C89281B390B3C872B87ED84FE840F859E
:100AB0001889AD88BE88CF88D88CEA14FB040C0551
:100AC0001D0540F4EE0CFF1C001F111F215030408B
:100AD0003C872B8720E030E040E050E080E090E071
:100AE000A0E0B0E460E070E0EA14FB040C051D0532
:100AF00040F0282B392B4A2B5B2BEA18FB080C09FA
:100B00001D09B695A79597958795EE0CFF1C001FBC
:100B1000111F6F5F7F4F6F31710531F7DA01C90126
:100B20008F779070A070B07080349105A105B105E9
:100B300061F427FD0AC0E114F1040105110529F053
:100B4000205C3F4F4F4F5F4F20782D873E874F8768
:100B5000588BBE01675F7F4FCB010E94FF066896EE
:100B6000EAE00C94C908A8E1B0E0E9EBF5E00C94E8
:100B7000B10869837A838B839C832D833E834F8363
:100B8000588789E0E82EF12CEC0EFD1ECE0101966F
:100B9000B7010E94D4078E010F5E1F4FCE0105964C
:100BA000B8010E94D4078985823040F0898982305B
:100BB00028F0C701B8010E944C0801C08FEF689669
:100BC000E6E00C94CD08ACE0B0E0E9EEF5E00C9482
:100BD000B50869837A838B839C83CE010196BE011D
:100BE0006B5F7F4F0E94D4078D81823061F182302C
:100BF00050F1843021F48E81882351F12EC02F8151
:100C0000388537FD20C06E812F3131051CF06623F9
:100C1000F9F023C08EE190E0821B930B29853A8581
:100C20004B855C8504C056954795379527958A95E1
:100C3000D2F76623B1F050954095309521953F4FFE
:100C40004F4F5F4F0EC020E030E040E050E009C061
:100C50002FEF3FEF4FEF5FE704C020E030E040E0D0
:100C600050E8B901CA012C96E2E00C94D108A8E042
:100C7000B0E0EDE3F6E00C94AD087B018C0161156A
:100C800071058105910519F482E0898360C083E0D4
:100C900089838EE1C82ED12CDC82CB82ED82FE824C
:100CA0000F831887C801B7010E94B006FC01319775
:100CB000F7FF3BC0222733272E1B3F0B570168014C
:100CC000022E04C0D694C794B794A7940A94D2F77E
:100CD00040E050E060E070E081E090E0A0E0B0E053
:100CE00004C0880F991FAA1FBB1F2A95D2F701972E
:100CF000A109B1098E219F21A023B1230097A1054D
:100D0000B10521F041E050E060E070E04A295B2944
:100D10006C297D294D835E836F8378878EE190E017
:100D20008E1B9F0B9C838B8312C0309781F00E2EFD
:100D300004C0EE0CFF1C001F111F0A94D2F7ED82B5
:100D4000FE820F831887CE1ADF0ADC82CB821A82DA
:100D5000CE0101960E94FF062896EAE00C94C9088D
:100D6000EF92FF920F931F937B018C0180E0E816B6
:100D700080E0F80681E0080780E0180788F48FEF2C
:100D8000E816F1040105110531F028F088E090E043
:100D9000A0E0B0E017C080E090E0A0E0B0E012C0BA
:100DA00080E0E81680E0F80680E0080781E0180798
:100DB00028F088E190E0A0E0B0E004C080E190E09D
:100DC000A0E0B0E020E230E040E050E0281B390B2A
:100DD0004A0B5B0B04C016950795F794E7948A9528
:100DE000D2F7F701E85FFD4F8081281B31094109E7
:100DF0005109C9011F910F91FF90EF900895DF9263
:100E0000EF92FF920F931F93FC01E480F58006811F
:100E10001781D1808081823048F480E090E0A0E1A9
:100E2000B0E0E82AF92A0A2B1B2BA5C0843009F46C
:100E30009FC0823021F4EE24FF24870105C0E11415
:100E4000F1040105110519F4E0E0F0E096C06281BB
:100E500073819FEF623879070CF05BC022E83FEFA7
:100E6000261B370B2A3131052CF020E030E040E022
:100E700050E02AC0B801A701022E04C076956795FC
:100E8000579547950A94D2F781E090E0A0E0B0E052
:100E900004C0880F991FAA1FBB1F2A95D2F701977C
:100EA000A109B1098E219F21A023B1230097A1059B
:100EB000B10521F081E090E0A0E0B0E09A01AB0143
:100EC000282B392B4A2B5B2BDA01C9018F779070C5
:100ED000A070B07080349105A105B10539F427FFE9
:100EE00009C0205C3F4F4F4F5F4F04C0215C3F4F14
:100EF0004F4F5F4FE0E0F0E02030A0E03A07A0E085
:100F00004A07A0E45A0710F0E1E0F0E079018A0115
:100F100027C06038710564F5FB01E158FF4FD80127
:100F2000C7018F779070A070B07080349105A105D3
:100F3000B10539F4E7FE0DC080E490E0A0E0B0E038
:100F400004C08FE390E0A0E0B0E0E80EF91E0A1FB5
:100F50001B1F17FF05C016950795F794E794319668
:100F600087E016950795F794E7948A95D1F705C021
:100F7000EE24FF248701EFEFF0E06E2F67956627E0
:100F80006795902F9F77D794DD24D7948E2F8695E1
:100F9000492F462B582F5D29B701CA011F910F9188
:100FA000FF90EF90DF900895FC01DB0140815181BB
:100FB0002281622F6F7770E0221F2227221F9381E8
:100FC000892F880F822B282F30E0991F9927991F8E
:100FD00011969C93119721153105A9F541155105DD
:100FE0006105710511F482E037C082E89FEF139626
:100FF0009C938E9312979A01AB0167E0220F331FE7
:10100000441F551F6A95D1F783E08C930DC0220FC2
:10101000331F441F551F12968D919C911397019772
:1010200013969C938E931297203080E0380780E0CF
:10103000480780E4580758F314962D933D934D9339
:101040005C93179708952F3F310579F441155105A9
:101050006105710519F484E08C93089564FF03C061
:1010600081E08C9312C01C9210C02F573040139611
:101070003C932E93129783E08C9387E0440F551F87
:10108000661F771F8A95D1F7706414964D935D9310
:101090006D937C93179708951F93DC01FB019C913E
:1010A000923008F447C08081823008F443C0943005
:1010B00051F411961C91843099F58181682F70E06C
:1010C000611B71093FC0843021F0923031F48230CD
:1010D000B9F18181882389F12DC011961C91119756
:1010E0008230F1F081811817D9F412962D913C913C
:1010F0001397828193818217930794F028173907F9
:10110000BCF014968D919D910D90BC91A02D2481E1
:10111000358146815781281739074A075B0718F43C
:10112000112341F00AC082179307A407B50740F4C2
:10113000112319F061E070E005C06FEF7FEF02C08E
:1011400060E070E0CB011F9108952F923F924F9283
:101150005F926F927F928F929F92AF92BF92CF9247
:10116000DF92EF92FF920F931F93CF93DF93CDB750
:10117000DEB7CA1BDB0B0FB6F894DEBF0FBECDBFC8
:1011800019942A88398848885F846E847D848C8489
:101190009B84AA84B984C884DF80EE80FD800C81A2
:1011A0001B81AA81B981CE0FD11D0FB6F894DEBF85
:0C11B0000FBECDBFED010895F894FFCFF5
:1011BC000000000000000000000102020303030312
:1011CC0004040404040404040505050505050505CB
:1011DC0005050505050505050606060606060606AB
:1011EC000606060606060606060606060606060693
:1011FC00060606060606060607070707070707077B
:10120C000707070707070707070707070707070762
:10121C000707070707070707070707070707070752
:10122C000707070707070707070707070707070742
:10123C00070707070707070708080808080808082A
:10124C000808080808080808080808080808080812
:10125C000808080808080808080808080808080802
:10126C0008080808080808080808080808080808F2
:10127C0008080808080808080808080808080808E2
:10128C0008080808080808080808080808080808D2
:10129C0008080808080808080808080808080808C2
:1012AC0008080808080808080808080808080808B2
:0812BC000808080808080808EA
:00000001FF
